:100000000C94F60E0C94270F0C94270F0C94270FCA
:100010000C94270F0C94270F0C94270F0C94270F88
:100020000C94270F0C94270F0C94270F0C94270F78
:100030000C94270F0C94270F0C94270F0C94270F68
:100040000C94270F0C94EE840C94270F0C94270F1C
:100050000C94270F0C94270F0C946E790C94EE7768
:100060000C94270F0C9438850C942E850C94270F34
:100070000C94270F0C94270F0C94270F0C94270F28
:100080000C94270F0C94270F0C94270F0C94270F18
:100090000C94270F0C94270F0C94270F0C94270F08
:1000A0000C94270F0C94270F0C94270F0C94270FF8
:1000B0000C94270F0C94270F0C94270F0C94270FE8
:1000C0000C94270F0C94270F0C94270F0C94270FD8
:1000D0000C94270F0C94270F0C94270F0C94270FC8
:1000E0000C94270F084AD73B3BCE016E84BCBFFD62
:1000F000C12F3D6C74319ABD56833DDA3D00C77FF8
:1001000011BED9E4BB4C3E916BAAAABE0000008090
:100110003F05A84CCDB2D44EB93836A9020C50B91F
:10012000918688083CA6AAAA2ABE000000803F004B
:100130000C946F0F0C94630F0C945D0F0C94A4102F
:100140000C94980F0C94AC100C94780F0C949210A3
:100150000C9462850C94ED100C9488100C94011191
:100160000C94820F0C947E100C949D0F0C94670FCE
:100170000C947C0F0C94940F0C94B6100C9471108A
:100180000C946B0F0C949C100C94CA100C94F710E8
:100190000C9479100C94A20F0C94E3100C948A0F19
:1001A0000C94C0100C940B110C94900F0C949E0F97
:1001B0000C94720F0C94860F0C94D9104E414E493A
:1001C0004E495459494E46CDCCCC3D0AD7233C1715
:1001D000B7D13877CC2B329595E6241FB14F0A0062
:1001E0000020410000C84200401C4620BCBE4CCA52
:1001F0001B0E5AAEC59D74434F4D4D554E4943415C
:1002000054494F4E0044525952554E004552524F98
:10021000525300494E464F004543484F00457272C5
:100220006F722077726974696E6720746F2045451C
:1002300050524F4D210A00363726033C3D380E2ED2
:10024000303E121A1C180AFF43080907084400012F
:100250002121204B494C4C206361757365642062F9
:100260007920746F6F206D75636820696E616374A7
:100270006976652074696D65202D206375727265DD
:100280006E7420636F6D6D616E643A20004D343181
:1002900030004D313132004D313038005072696ECE
:1002A0007465722073746F70706564206475652066
:1002B000746F206572726F72732E20466978207495
:1002C0006865206572726F7220616E642075736557
:1002D000204D39393920746F2072657374617274DE
:1002E0002E202854656D7065726174757265206981
:1002F000732072657365742E2053657420697420B1
:1003000061667465722072657374617274696E6778
:10031000290A004E6F20436865636B73756D207703
:10032000697468206C696E65206E756D6265722CEB
:10033000204C617374204C696E653A2000636865D7
:10034000636B73756D206D69736D617463682C20C8
:100350004C617374204C696E653A20004C696E657F
:10036000204E756D626572206973206E6F74204C2B
:10037000617374204C696E65204E756D6265722BD9
:10038000312C204C617374204C696E653A20004D0D
:1003900031313000627573793A207061757365642C
:1003A00020666F7220696E7075740A0062757379C9
:1003B0003A2070617573656420666F72207573658D
:1003C000720A00627573793A2070726F6365737395
:1003D000696E670A006563686F3A004572726F72F2
:1003E0003A0020496E76616C696420657874727594
:1003F00064657220004361703A0047322F47332012
:1004000062616420706172616D65746572730A0067
:10041000526573656E643A200023646566696E6593
:100420002044454641554C545F0000626564004BD2
:100430006420004B6920004B70200050494420414B
:1004400075746F74756E652066696E69736865642E
:10045000212050757420746865206C617374204B82
:10046000702C204B6920616E64204B6420636F6E9A
:100470007374616E74732066726F6D2062656C6F49
:100480007720696E746F20436F6E6669677572615D
:1004900074696F6E2E680A00504944204175746F6C
:1004A00074756E65206661696C6564212074696D80
:1004B000656F75740A00504944204175746F7475F6
:1004C0006E65206661696C6564212054656D706598
:1004D00072617475726520746F6F20686967680A4D
:1004E00000204B643A2000204B693A2000204B70DA
:1004F0003A20000A20436C617373696320504944B9
:10050000200A00204B643A2000204B693A2000204A
:100510004B703A20000A204E6F206F766572736828
:100520006F6F740A002054753A2000204B753A20F2
:1005300000206D61783A2000206D696E3A2000201D
:10054000643A200020626961733A200050494420D7
:100550004175746F74756E652073746172740A00EE
:10056000504944204175746F74756E6520666169E9
:100570006C6564212054656D706572617475726577
:1005800020746F6F20686967680A005049442041F1
:1005900075746F74756E65206661696C6564212081
:1005A000426164206578747275646572206E756D41
:1005B0006265720A0000009643000096430000C87E
:1005C00043000000000000A0C000000000290A0055
:1005D0002062797465733B206372632000536574F5
:1005E00074696E67732053746F72656420280045C8
:1005F0004550524F4D206461746173697A6520657E
:1006000072726F722E0A00290A0020627974657373
:100610003B2063726320002073746F7265642073E3
:10062000657474696E677320726574726965766546
:1006300064202800202863616C63756C61746564B4
:1006400029210A0020213D2000454550524F4D20D0
:10065000435243206D69736D61746368202D2028B7
:1006600073746F7265642920002053697A653A209B
:1006700000496E6465783A2000204D61726C696EA5
:100680003D563831290A00454550524F4D20766578
:100690007273696F6E206D69736D61746368202871
:1006A000454550524F4D3D0048617264636F64652B
:1006B000642044656661756C742053657474696E5A
:1006C0006773204C6F616465640A00000048430052
:1006D0000048430000A041000020420000A042006A
:1006E00000A0420000C8430080DE43D0070000D0D5
:1006F00007000064000000102700003B20003A0AB9
:100700000020204D393030204B004C696E656172FD
:1007100020416476616E63653A0020204D383531A2
:100720002058005A2D50726F6265204F66667365BF
:10073000740020440020490020204D3330342050E4
:100740000020440020490020204D3330312050004B
:100750005049442073657474696E67733A002020B1
:100760004D323036205800486F6D65206F666673D5
:1007700065743A00204A0020530020204D32303565
:10078000204200416476616E6365643A20423C6DAC
:10079000696E5F7365676D656E745F74696D655FC3
:1007A00075733E20533C6D696E5F6665656472616A
:1007B00074653E20543C6D696E5F74726176656C41
:1007C0005F66656564726174653E204A3C6A756E59
:1007D000635F6465763E0020520020204D32303445
:1007E000205000416363656C65726174696F6E20AF
:1007F00028756E6974732F7332293A20503C7072D9
:10080000696E745F616363656C3E20523C7265740F
:10081000726163745F616363656C3E20543C747203
:100820006176656C5F616363656C3E0020204D32CC
:1008300030312058004D6178696D756D20416363DA
:10084000656C65726174696F6E2028756E6974736A
:100850002F7332293A0020204D3230332058004D7A
:100860006178696D756D2066656564726174657324
:100870002028756E6974732F73293A00537465705C
:10088000732070657220756E69743A0020440020F0
:10089000204D3230302053002044697361626C6512
:1008A000640A0046696C616D656E742073657474CA
:1008B000696E67733A0020286D6D29002020473249
:1008C00031202020203B20556E69747320696E20F2
:1008D0006D6D006F70656E00545249474745524533
:1008E00044003A20007A5F6D696E00795F6D696E31
:1008F00000785F6D696E005265706F7274696E6723
:1009000020656E6473746F70207374617475730AFC
:1009100000486F6D65202573257325732046697225
:100920007374000000A0420000A0420000A04157E4
:1009300061726E696E673A20486F6D696E6720421A
:10094000756D702044697669736F72203C20310A9E
:10095000000202040000A0400000A040000000408F
:1009600000009643008098430000C8430000000147
:1009700000000001000080005555550000004000B7
:1009800033333300AAAA2A00499224000000200031
:10099000C7711C0099991900D145170055551500CC
:1009A0003BB1130024491200111111000000100086
:1009B0000F0F0F00E3380E0043790D00CCCC0C0074
:1009C000C3300C00E8A20B0064210B00AAAA0A00A5
:1009D000703D0A009DD80900427B0900922409005D
:1009E000DCD30800888808001042080000000800D6
:1009F000F0C107008787070075500700711C0700CA
:100A00003EEB0600A1BC0600699006006666060083
:100A1000703E06006118060017F4050074D1050049
:100A20005BB00500B29005006272050055550500E7
:100A300078390500B81E0500050505004EEC0400D8
:100A400087D40400A1BD040090A7040049920400CB
:100A5000C17D0400EE690400C7560400444404004C
:100A60005C3204000821040041100400000004006E
:100A70003FF00300F8E0030026D20300C3C30300E5
:100A8000CCB503003AA803000A9B0300388E03008C
:100A9000C08103009F750300D0690300505E03000E
:100AA0001D53030034480300913D0300333303001A
:100AB00016290300381F030097150300300C0300AC
:100AC000030303000BFA020049F10200BAE8020036
:100AD0005CE002002DD802002DD0020059C80200AF
:100AE000B0C0020031B90200DAB10200AAAA0200C5
:100AF000A0A30200BC9C0200FA9502005C8F0200D9
:100B0000DF88020082820200457C02002776020014
:100B100027700200436A02007C640200D05E02007B
:100B20003F590200C8530200FFFDFCFAF8F6F4F248
:100B3000F0EEECEAE9E7E5E3E1E0DEDCDAD9D7D58F
:100B4000D4D2D0CFCDCBCAC8C7C5C3C2C0BFBDBC2D
:100B5000BAB9B7B6B4B3B2B0AFADACAAA9A8A6A59E
:100B6000A4A2A1A09E9D9C9A9998979594939290E7
:100B70008F8E8D8B8A8988878684838281807F7E11
:100B80007D7B7A797877767574737271706F6E6D1C
:100B90006C6B6A696867666564636261605F5E5D0D
:100BA0005C5B5A5958585756555453525150504FF0
:100BB0004E4D4C4B4A4A49484746464544434242BB
:100BC00041403F3E3E3D3C3B3B3A39383837363575
:100BD00035343332323130302F2E2E2D2C2B2B2A20
:100BE00029292827272625252423232221212020BF
:100BF0001F1E1E1D1C1C1B1B1A1919181817161650
:100C0000151514131312121111100F0F0E0E0D0DD6
:100C10000C0C0B0A0A090908080707060605050453
:100C2000040303020201000024F4D43050C38E20D8
:100C3000C2A24017828B7011127A910D816CD90A71
:100C4000A861E108C7586607615143061E4B5D0560
:100C5000C145A7041A411104093D980371393103B4
:100C60004036DB0265339102D4305402802E1D02DF
:100C7000632CEE01752AC501B028A001102781015F
:100C80008F2564012B244B01E0223401AC211F018C
:100C90008D200D01801FFC00841EED00971DDF00DC
:100CA000B81CD200E61BC600201BBC00641AB200B0
:100CB000B219A8000A19A0006A189900D11791006A
:100CC00040178B00B516840031167E00B3157900ED
:100CD0003A157300C7146F0058146A00EE136600CB
:100CE0008813630025135E00C7125B006C12570067
:100CF00015125400C111510070114F0021114B0009
:100D0000D61049008D1047004610440002104200E2
:100D1000C00F4000800F3E00420F3C00060F3B001A
:100D2000CB0E3800930E37005C0E3500270E3400D2
:100D3000F30D3200C10D3100900D3000600D2E001A
:100D4000320D2D00050D2C00D90C2B00AE0C290006
:100D5000850C29005C0C2700350C27000E0C2600A2
:100D6000E80B2400C40B2400A00B23007D0B230000
:100D70005A0B2100390B2100180B2000F80A1F0024
:100D8000D90A1E00BB0A1E009D0A1D00800A1D0014
:100D9000630A1C00470A1B002C0A1B00110A1A00D8
:100DA000F7091A00DD091900C4091900AB09190077
:100DB000920917007B091800630917004C091600F7
:100DC00036091600200916000A091500F508150055
:100DD000E0081400CC081400B8081400A40814009B
:100DE000900813007D0812006B08130058081200C9
:100DF00046081200340811002308110012081100DF
:100E000001081100F0071000E0071000D0071000E3
:100E1000C0071000B0070F00A107100091070E00D7
:100E200083070F0074070F0065070E0057070E00B9
:100E300049070E003B070D002E070E0020070D008E
:100E400013070D0006070D00F9060C00ED060D0056
:100E5000E0060C00D4060C00C8060C00BC060C0012
:100E6000B0060C00A4060B0099060C008D060B00C2
:100E700082060B0077060B006C060B0061060A0069
:100E800057060B004C060A0042060A0038060A0004
:100E90002E060A0024060A001A060A001006090097
:100EA00007060A00FD050900F4050900EB05090025
:100EB000E2050900D9050900D0050900C7050900A8
:100EC000BE050900B5050800AD050800A505090027
:100ED0009C050800940508008C050800840508009E
:100EE0007C050800740508006C050700650508000E
:100EF0005D050700560508004E0507004705070079
:100F00004005080038050700310507002A050700DD
:100F1000230507001C050600160507000F0507003E
:100F20000805060002050700FB040600F50407009B
:100F3000EE040600E8040600E2040700DB040600F5
:100F4000D5040600CF040600C9040600C304060049
:100F5000BD040600B7040600B1040500AC04060099
:100F6000A6040600A00405009B04060095040500E5
:100F7000900406008A04050085040500800406002C
:100F80007A04050075040500700405006B04050073
:100F900066040500610405005C04050057040500B3
:100FA000520405004D0405004804050043040500F3
:100FB0003E0404003A040500350405003004040032
:100FC0002C04050027040400230405001E0404006B
:100FD0001A04040016040500110404000D040400A2
:100FE000090405000404040000040400FC030400D8
:100FF000F8030400F4030400F0030400EC0304000D
:10100000E8030400E4030400E0030400DC0304003C
:10101000D8030400D4030400D0030400CC0304006C
:10102000C8030300C503030024F404D9201BC40C27
:101030005C0E9804C4095F0265077101F405F900AC
:10104000FB04B30048048700C1036900580355003E
:1010500003034500BE023A008402310053022A0015
:101060002902250004022000E4011C00C801190027
:10107000AF011700980114008401130071011000E2
:101080006101100051010E0043010D0036010B00FB
:101090002B010B0020010B00150109000C010900B8
:1010A00003010800FB000800F3000800EB00070044
:1010B000E4000600DE000600D8000600D2000600AC
:1010C000CC000500C7000500C2000500BD000400FB
:1010D000B9000400B5000400B1000400AD00040034
:1010E000A9000400A5000300A20003009F00040063
:1010F0009B0003009800030095000200930003008A
:10110000900003008D0002008B00030088000200A5
:101110008600020084000300810002007F000200BC
:101120007D0002007B0002007900020077000100D0
:1011300076000200740002007200010071000200DB
:101140006F0002006D0001006C0002006A000100E7
:1011500069000200670001006600010065000100EF
:1011600064000200620001006100010060000100F3
:101170005F0002005D0001005C0001005B000100F7
:101180005A000100590001005800010057000100F9
:1011900056000100550001005400010053000000FA
:1011A00053000100520001005100010050000100F5
:1011B0004F0001004E0000004E0001004D000100F4
:1011C0004C0001004B0000004B0001004A000100F0
:1011D00049000100480000004800010047000100EC
:1011E00046000000460001004500000045000100E7
:1011F00044000100430000004300010042000000E1
:1012000042000100410000004100010040000100D7
:101210003F0000003F0001003E0000003E000100D2
:101220003D0000003D0001003C0000003C000000CB
:101230003C0001003B0000003B0001003A000000C0
:101240003A000100390000003900010038000000B8
:1012500038000000380001003700000037000100AE
:1012600036000000360000003600010035000000A6
:10127000350000003500010034000000340000009B
:10128000340001003300000033000000330001008F
:101290003200000032000000320001003100000086
:1012A000310000003100010030000000300000007B
:1012B000300001002F0000002F0000002F00000070
:1012C0002F0001002E0000002E0000002E00010063
:1012D0002D0000002D0000002D0000002D00010059
:1012E0002C0000002C0000002C0000002C0001004D
:1012F0002B0000002B0000002B0000002B00010041
:101300002A0000002A0000002A0000002A00010034
:101310002900000029000000290000002900000029
:10132000290001002800000028000000280000001B
:10133000280000002800010027000000270000000E
:101340002700000027000000270001002600000001
:1013500026000000260000002600000026000100F4
:1013600025000000250000002500000025000000E9
:1013700025000000250001002400000024000000DA
:1013800024000000240000002400010023000000CD
:1013900023000000230000002300000023000000C1
:1013A00023000000230001002200000022000000B2
:1013B00022000000220000002200000022000100A4
:1013C0002100000021000000210000002100000099
:1013D0002100000021000000210001002000000089
:1013E000200000002000000020000000200000007D
:1013F0002000000020000000200001001F0000006D
:101400001F0000001F0000001F0000001F00000060
:101410001F0000001F0001001E0000001E00000051
:101420001E0000001E000000232C0000B822000057
:10143000561800003A0F0000B8080000B104000080
:10144000710200003E01000020436F756E74205849
:101450003A00626564002C2073797374656D2073A3
:10146000746F7070656421204865617465725F49AE
:10147000443A200048656174696E67204661696C72
:1014800065640048656174696E67206661696C65B2
:101490006400544845524D414C2052554E415741ED
:1014A0005900546865726D616C2052756E61776188
:1014B00079004572723A204D415854454D50004DC7
:1014C000415854454D502074726967676572656470
:1014D000004572723A204D494E54454D50004D49D9
:1014E0004E54454D5020747269676765726564009B
:1014F000202F002042403A0020403A000000210006
:10150000240027002A002D003000330001010000D4
:10151000040107010A0100002200250028002B0019
:101520002E003100340002010000050108010B010A
:10153000000020002300260029002C002F0032008C
:101540000001000003010601090105050505070565
:1015500008080808020202020A0A0808040404042F
:10156000010101010101010103030303030303035B
:10157000040707070C0C0C0C0C0C0C0C02020202EA
:1015800006060606060606060B0B0B0B0B0B0B0BD3
:101590000102102020080810204010204080020185
:1015A000020108040201010204081020408080406A
:1015B0002010080402018004020180402010080469
:1015C0000201080402010102040810204080010207
:1015D00004081020408000000A0B02090C0D0E08C0
:1015E00007030401000000000000000000000000EC
:1015F00000000000000000000000000000000000EB
:1016000000001211100000000000000000000000A7
:1016100000000000000000000000000070012C012C
:1016200090012701B0012201C0011D01F001180144
:101630001002130130020E01600209019002040140
:10164000C002FF000003FA004003F5008003F00031
:10165000D003EB002004E6007004E100E004DC00AD
:101660004005D700C005D2004006CD00D006C80016
:101670008007C3003008BE00F008B900C009B400FC
:10168000B00AAF00B00BAA00D00CA500000EA0005D
:10169000500F9B00C01096005012910000148C0057
:1016A000C0158700B0178200B0197D00D01B7800EC
:1016B000001E730040206E0090226900F024640038
:1016C00040275F0090295A00E02B5500102E500053
:1016D00020304B0010324600E033410090353C0092
:1016E0001037370070383200A0392D00B03A28008A
:1016F000A03B2300603C1E00103D1900903D1400EB
:10170000103E0F00703E0A00C03E0500003F000082
:10171000403FFBFF803FF6FFC03FF1FF2020506CB1
:10172000616E6E6572427566666572427974657344
:101730003A20002046726565204D656D6F72793ADA
:101740002000436F6D70696C65643A204D617220B2
:10175000323920323032310A00204C617374205506
:101760007064617465643A20323032302D30372D28
:101770003238207C20417574686F723A2053706152
:10178000636520436164657473204C69676874699C
:101790006E670A00322E302E360A004D61726C6977
:1017A0006E0020536F6674776172652052657365B1
:1017B000740A00205761746368646F672052657310
:1017C00065740A002042726F776E206F7574205224
:1017D000657365740A002045787465726E616C20CB
:1017E00052657365740A00506F77657255700A0010
:1017F00073746172740A00205A3A0020593A00202A
:10180000583A00656E6473746F7073206869743A37
:1018100020006F6B00496E76616C69642065787496
:1018200072756465720A002E0A002028302D31304E
:1018300029002076616C7565206F7574206F6620B5
:1018400072616E676500416476616E6365204B3D31
:1018500000290A0020746F20003F5A206F75742001
:101860006F662072616E6765202800290A00207467
:101870006F20003F59206F7574206F662072616E73
:10188000676520282D00290A0020746F20003F582A
:10189000206F7574206F662072616E676520282D39
:1018A0000050726F6265204F666673657420580041
:1018B000454550524F4D204F4B0A00546F6F2066E4
:1018C00061722066726F6D207265666572656E6307
:1018D0006520706F696E740A00FFFFFF0000000052
:1018E0000000A0C00000000064697300656E004342
:1018F000290A0061626C656420286D696E20746538
:101900006D702000436F6C64206578747275646537
:101910007320617265200020643A0020693A00203B
:10192000703A0020643A0020693A0020703A004979
:101930006E76616C69642065787472756465720A8C
:101940000020466C6F773A200046523A004F4646D8
:10195000004F4E0020580020204D61783A20002092
:101960000020204D696E3A2000536F667420656E2A
:101970006473746F70733A20003F4A206F7574204F
:101980006F662072616E67652028302E30312074BA
:101990006F20302E33290A0020540020520041636A
:1019A00063656C65726174696F6E3A2050002F2F09
:1019B00020004348414D4245525F54454D504552E9
:1019C00041545552450042414259535445505049A3
:1019D0004E470041524353004D4F54494F4E5F4DC7
:1019E0004F44455300544845524D414C5F50524F6F
:1019F00054454354494F4E004C4F4E475F46494C67
:101A0000454E414D45004155544F5245504F52545B
:101A10005F53445F53544154555300534443415220
:101A2000440050524F4D50545F535550504F5254F4
:101A300000454D455247454E43595F50415253452D
:101A40005200434153455F4C494748545F42524915
:101A50004748544E45535300544F47474C455F4CFD
:101A6000494748545300534F4654574152455F50DD
:101A70004F574552004255494C445F5045524345EB
:101A80004E54004C4556454C494E475F44415441E5
:101A9000005A5F50524F42450052554E4F55540028
:101AA0004155544F4C4556454C005052494E545F99
:101AB0004A4F420050524F475245535300415554EC
:101AC0004F5245504F52545F54454D5000564F4C65
:101AD000554D455452494300454550524F4D0042E3
:101AE000494E4152595F46494C455F5452414E530D
:101AF0004645520053455249414C5F584F4E5F583E
:101B00004F4646004649524D574152455F4E414D62
:101B1000453A4D61726C696E20322E302E36202887
:101B20004D617220323920323032312031323A3335
:101B3000303A33312920534F555243455F434F4488
:101B4000455F55524C3A68747470733A2F2F676929
:101B5000746875622E636F6D2F4D61726C696E468D
:101B600069726D776172652F4D61726C696E20507C
:101B7000524F544F434F4C5F56455253494F4E3A84
:101B8000312E30204D414348494E455F5459504510
:101B90003A5369646577696E6465722058312045EF
:101BA000585452554445525F434F554E543A312094
:101BB000555549443A63656465326132662D343166
:101BC00061322D343734382D396231322D63353559
:101BD0006336326633363766660A0020573A004D60
:101BE0003131332053006F666600180213020C0275
:101BF0000502F70144454255473A006F6B002057F4
:101C00003A0050726F7465637465642050696E0A9F
:101C100000496E76616C69642050696E204D6F6476
:101C2000650A002569730025696D20256973002503
:101C300069682025696D2025697300256964202560
:101C400069682025696D202569730025697920253B
:101C50006964202569682025696D20256973005015
:101C600072696E742074696D653A200050726F62FB
:101C7000696E67204661696C65640A00205A3A20E3
:101C80000020593A200042656420583A20005A202A
:101C900050726F62652050617374204265640A005F
:101CA00020746F6F206C6F6E672065787472757327
:101CB000696F6E2070726576656E7465640A0020C7
:101CC000636F6C6420657874727573696F6E2070D1
:101CD000726576656E7465640A00DB0FC93F45BCAA
:101CE000DA3F8FB30240FCF0274056946140FE4B30
:101CF0009B4084A5D840E0231841346A5641E859F6
:101D0000974164DBD5416E271742B4B75542CE1ACE
:101D10009742C8AED542B5885A43D40684BFA65F61
:101D2000A7BF7443E0BF10B11AC01C2C58C0E8F61E
:101D300097C0B849D6C04E4E17C124D355C1802490
:101D400097C1A0B5D5C1121A17C244AE55C27817B3
:101D500097C26CACD5C267885AC320746F6F206C71
:101D60006F6E6720657874727573696F6E2070721C
:101D70006576656E7465640A0020636F6C64206527
:101D80007874727573696F6E2070726576656E74A3
:101D900065640A00220A00556E6B6E6F776E2063D1
:101DA0006F6D6D616E643A202200204500205A005C
:101DB000205900204D39322058005072696E7465E8
:101DC000722068616C7465642E206B696C6C2829C4
:101DD0002063616C6C6564210A0020453A00205A3A
:101DE0003A0020593A00583A0000628511241FBE7B
:101DF000CFEFD1E2DEBFCDBF00E00CBF12E0A0E02C
:101E0000B2E0EEE1FAE201E00BBF02C007900D92F2
:101E1000A63BB107D9F72EE0A6EBB2E001C01D92B8
:101E2000AF32B207E1F71EE0C6EFDEE000E006C029
:101E300021970109802FFE010E94C894C53FD10758
:101E400080E00807A9F70E94A6850C940D950C94D4
:101E50000000FC01DB018C9120813181382798E062
:101E6000A901220F331F57FD05C09150C9F73183D7
:101E700020830895B1E22B27B0E13B27F6CF8150B4
:101E8000823108F05AC0E82FF0E08827E55BF04F78
:101E90008F4F0C94C8946B0F6F0F5D0F630F670F1C
:101EA0009D0F720F780F7C0F820F860F8A0F900F95
:101EB000940F9D0F980F9E0FA20F809180008F7737
:101EC000809380000895809180008F7DF9CF80916C
:101ED0008000877FF5CF84B58F7784BD089584B562
:101EE0008F7DFBCF8091B0008F778093B0000895F5
:101EF0008091B0008F7DF9CF809190008F77809393
:101F000090000895809190008F7DF9CF809190008E
:101F1000877FF5CF8091A0008F778093A0000895F0
:101F20008091A0008F7DF9CF8091A000877FF5CFB1
:101F3000809120018F778093200108958091200166
:101F40008F7DF9CF80912001877FF5CFCF93DF93ED
:101F5000282F30E0F901EA52FA4E8491F901E05756
:101F6000FA4ED491F901E65BFA4EC491CC23A1F06C
:101F700081110E943F0FEC2FF0E0EE0FFF1FE05D9C
:101F8000FA4EA591B491EC91ED2381E090E009F433
:101F900080E0DF91CF91089580E090E0FACF1F9329
:101FA000CF93DF93282F30E0F901EA52FA4E849163
:101FB000F901E057FA4ED491F901E65BFA4EC4916B
:101FC000CC23A9F0162F81110E943F0FEC2FF0E0D7
:101FD000EE0FFF1FEA5EFA4EA591B4918FB7F89409
:101FE000EC91111108C0D095DE23DC938FBFDF91F7
:101FF000CF911F910895DE2BF8CFCF93DF9390E020
:10200000FC01E057FA4E2491865B9A4EFC018491C4
:102010008823C9F090E0880F991FFC01E450FB4E23
:10202000A591B491FC01EA5EFA4EC591D49161117B
:102030000DC09FB7F8948C91209582238C93888152
:10204000282328839FBFDF91CF910895623051F4F8
:102050009FB7F8943C91822F809583238C93E881DD
:102060002E2BEFCF8FB7F894EC912E2B2C938FBFA4
:10207000EACF1F93CF93DF93182FEB0161E00E940B
:10208000FD0F209739F460E0812FDF91CF911F91F0
:102090000C94CF0FCF3FD10511F461E0F5CFE12FC4
:1020A000F0E0EA52FA4EE491E150E23108F0B3C0B8
:1020B000F0E08827E15AFF4E8F4F0C94C8947110BE
:1020C00079107E10881092100B119C10A410AC1087
:1020D000B610C010CA10D910E3100B11ED10F71094
:1020E000011184B5806884BDC7BDDF91CF911F9178
:1020F000089584B5806284BDC8BDF7CF809180000B
:10210000806880938000D0938900C0938800EDCFD1
:1021100080918000806280938000D0938B00C09378
:102120008A00E3CF80918000886080938000D09304
:102130008D00C0938C00D9CF8091B00080688093CF
:10214000B000C093B300D1CF8091B0008062809383
:10215000B000C093B400C9CF809190008068809394
:102160009000D0939900C0939800BFCF80919000C9
:10217000806280939000D0939B00C0939A00B5CF6B
:1021800080919000886080939000D0939D00C093D0
:102190009C00ABCF8091A00080688093A0008091CC
:1021A000A0008F7B8093A000D093A900C093A800CB
:1021B0009CCF8091A00080628093A000D093AB0060
:1021C000C093AA0092CF8091A00088608093A00065
:1021D000D093AD00C093AC0088CF8091200180687F
:1021E00080932001D0932901C09328017ECF809154
:1021F0002001806280932001D0932B01C0932A019B
:1022000074CF80912001886080932001D0932D01AC
:10221000C0932C016ACFC038D1050CF03ECF33CF2C
:102220003FB7F8948091BF049091C004A091C1047D
:10223000B091C20426B5A89B05C02F3F19F00196A6
:10224000A11DB11D3FBFBA2FA92F982F8827BC0110
:10225000CD01620F711D811D911D42E0660F771F38
:10226000881F991F4A95D1F708958F929F92AF9238
:10227000BF92CF92DF92EF92FF926B017C010E949E
:1022800010114B015C01C114D104E104F104B9F057
:102290000E941011681979098A099B09683E7340E8
:1022A0008105910580F321E0C21AD108E108F10807
:1022B00088EE880E83E0981EA11CB11CE4CFFF902D
:1022C000EF90DF90CF90BF90AF909F908F90089548
:1022D0002FB7F8946091BB047091BC048091BD0449
:1022E0009091BE042FBF0895CF93DF93C091DE0D70
:1022F000D091DF0D209729F16091DA0D7091DB0DFF
:102300008091DC0D9091DD0D0E940E936E5F7F4FEA
:1023100024976C177D07ACF47093D10D6093D00DAA
:102320000E946811605E714B8F4F9F4F6093D20D7A
:102330007093D30D8093D40D9093D50DDF91CF91F1
:1023400008951092D20D1092D30D1092D40D1092C8
:10235000D50DF4CFCF93DF93C091B506D091B606DB
:10236000209729F16091B1067091B2068091B30671
:102370009091B4060E940E936E5F7F4F24976C1766
:102380007D07ACF47093A8046093A7040E946811C1
:10239000605A75418F4F9F4F6093A9047093AA04B0
:1023A0008093AB049093AC04DF91CF910895109289
:1023B000A9041092AA041092AB041092AC04F4CFBA
:1023C0001092C50680912402909125020F9718164D
:1023D000190614F490E080E09093DF0D8093DE0DF9
:1023E0000E9474111092E00D2C981092B606109273
:1023F000B5060E94AA111092B70680910201807260
:102400008093000108958F929F92AF92BF92CF92D6
:10241000DF92EF92FF920F931F93CF93DF93B0E47D
:10242000A0E06A2F70E0AB014B0F511D5595479509
:10243000411119C0EEE1F6E165917491072E000C8F
:10244000880B990B0E945A8DDF91CF911F910F91AC
:10245000FF90EF90DF90CF90BF90AF909F908F90C4
:102460000895B42FE0CFA41711F0B41303C0EAE12C
:10247000F7E1E2CF9A0121503109220F331F220FD9
:10248000331FF901E45EF94EE590F490F901E05E46
:10249000F94EC591D4918E159F051CF3A42FC81732
:1024A000D9070CF4BECFF901E25EF94E0591149103
:1024B000F901EE5DF94EC590D490BC016E197F090B
:1024C000072E000C880B990B0E945A8D4B015C0162
:1024D000B601601B710B072E000C880B990B0E9434
:1024E0005A8D9B01AC01C501B4010E94B98D4B010D
:1024F0005C01BE016E197F09072E000C880B990B39
:102500000E945A8D9B01AC01C501B4010E949C92AE
:102510006B017C01B801110F880B990B0E945A8D39
:102520009B01AC01C701B6010E94A2918DCF8091A1
:102530007204882339F06091260E7091270E8091E5
:10254000280E089560E070E080E00895BC012091BD
:10255000530430915404409153045091540424176F
:10256000350731F481E02617370709F080E0089538
:102570009A01F1CFEF92FF920F931F93E092C30263
:10258000F092C4020093C5021093C6026093C70282
:102590007093C8028093C9029FEFFF27621B730BE1
:1025A000840B30F4809570956195790B890B992790
:1025B0009093C202A6E06A9F0092B602512DEE27C8
:1025C0007A9F500DE11D8A9FE00D5093B702E09372
:1025D000B802AFE06A9F0092BA02512DEE277A9FAF
:1025E000500DE11D8A9FE00D5093BB02E093BC02A9
:1025F000AAE06A9F0092BE02512DEE277A9F500DED
:10260000E11D8A9FE00D5093BF02E093C0021F912D
:102610000F91FF90EF9008958091C60480FF1DC038
:1026200089988FEF809304048091C604869580FF7B
:1026300017C08F988FEF809305048091C60486950C
:10264000869580FF10C080910B01809582708093E9
:1026500009018FEF809306040895899A81E0E2CF03
:102660008F9A81E0E8CF80910B01827080930901FD
:1026700081E0F0CF20912402309125022F503109C2
:10268000821793070CF49C013093DF0D2093DE0D2D
:102690000C9474119F92AF92BF92CF92DF92EF92FF
:1026A000FF920F931F93CF93DF9300D01F921F923F
:1026B000CDB7DEB7E8E2FBE00027BB27462F572F58
:1026C000A82FAA2341F4A52F542FB85FAA2319F4E9
:1026D000A52F5527B85FA03138F45295A295452F04
:1026E0004F70507FA42BBC5FA03428F4550FAA1F55
:1026F000550FAA1FBE5FA03818F4550FAA1FB39537
:10270000550FAA1FEA0FF01F449151E0AA27B850B5
:1027100081F1C8F0B0FF02C0440F551FB1FF04C0E3
:10272000440F551F440F551FB2FF06C052954295E6
:10273000142F1F70407F512BB3FF1BC0A52F542FA8
:1027400044270C94B913B195B0FF02C05595479535
:10275000B1FF04C05595479555954795B2FF05C003
:102760005295407F4295452B5F70B3FF02C0452FC5
:102770005527DD24CC24BB24B2E0649FD018C108C7
:10278000B00AB00B749FC018B108B00B849FB0188A
:10279000B109659FC018B108B00B759FB018B10999
:1027A000859FB0196A9FB018B1097A9FB0194D9DE5
:1027B000A12C99243327992722275D9DA00C911CD9
:1027C000301F901F201FAD9D900C311D901F201FAA
:1027D0004C9DA00C911C301F901F201F5C9D900CE5
:1027E000311D901F201FAC9D300D911D201F4B9D52
:1027F000900C311D901F201F5B9D300D911D201FDF
:10280000AB9D900D211D4B9F300D911D201F5B9F97
:10281000900D211DAB9F200DB1E0BB24CC24DD2405
:10282000639FD018C108B00AB00B739FC018B108DD
:10283000B00B839FB018B109699FC018B108B00BE5
:10284000799FB018B109899FB019629FB018B1097A
:10285000729FB019D61AC70AB80A20F0B1E03B0F30
:10286000901F201F1124792F632F90E0822F0F904B
:102870000F900F900F900F90DF91CF911F910F91BC
:10288000FF90EF90DF90CF90BF90AF909F90089512
:10289000CF92DF92EF92FF928091A106882309F4F4
:1028A00057C0C0909D06D0909E06E0909F06F09085
:1028B000A00620E030E0A901C701B6010E94538DB7
:1028C000882309F445C020E030E040E05FE3C70121
:1028D000B6010E94B98D9B01AC010E94B98D2BED10
:1028E0003FE049E450E40E94B98D9B01AC0160E0F7
:1028F00070E080E89FE30E949C926B017C01C09293
:102900008D06D0928E06E0928F06F092900660912E
:10291000260270912702072E000C880B990B0E944B
:102920005A8D2AE037ED43E25CE30E94B98DA7019E
:1029300096010E94B98D60934D0270934E02809370
:102940004F0290935002FF90EF90DF90CF90089548
:10295000C12CD12C80E8E82E8FE3F82ED0CF8091C7
:10296000FC0D9091FD0D891B8F7019F490E080E0B3
:1029700008959091F90D992351F0833030F48FEF41
:10298000890F19F08093F90DF1CF1092F90D809114
:10299000FD0D23E6829FC0011124835B984FFC014B
:1029A000208120FDE3CF2091FD0D2F5F2F7020931C
:1029B000FA0D3091FD0D2091FB0D321304C02091D2
:1029C000FA0D2093FB0D089590916F0081E091FD29
:1029D00002C080E0089590916F009D7F90936F00FA
:1029E0000895EFE6F0E08081826080830895CF93C0
:1029F000C82F0E94E41494E0C99F90011124F901AA
:102A0000EA5AFB4F2E593B4FD9014D915D916D9183
:102A10007C91408351836283738391E0909355044A
:102A2000882319F0CF910C94F114CF910895CF928F
:102A3000DF92EF92FF92CF93DF93C82F0E94E414AE
:102A400094E0C99FE0011124FE01EE59FB4FC080C4
:102A5000D180E280F38081110E94F114C85CD84FCC
:102A6000C701B6010E945A8D288139814A815B8154
:102A70000E94B98DDF91CF91FF90EF90DF90CF90C2
:102A80000895CF92DF92EF92FF92CF93DF93C82FFA
:102A90000E94E41494E0C99FE0011124FE01EA5A67
:102AA000FB4FC080D180E280F38081110E94F1143D
:102AB000C85CD84FC701B6010E945A8D2881398160
:102AC0004A815B810E94B98DDF91CF91FF90EF9099
:102AD000DF90CF900895CF93DF9324E0829FC001D1
:102AE0001124EC01C351D24FFC01EF56F94F815331
:102AF000994FDC012D913D914D915C9160817181E7
:102B0000828193810E94A291688379838A839B83C7
:102B1000DF91CF91089580FF04C09091F00690FD61
:102B20008E7F81FF04C09091F00691FD8D7F82FF22
:102B300004C09091F00692FD8B7F0895CF92DF92B2
:102B4000EF92FF921F93CF93DF93209128022223CD
:102B500009F48DC0EC011091F00610FF2CC0C0905C
:102B60002902D0902A02E0902B02F0902C022881BA
:102B700039814A815B81C701B6010E94029418160F
:102B800024F4C882D982EA82FB82C0903502D090B8
:102B90003602E0903702F0903802288139814A816C
:102BA0005B81C701B6010E94538D87FF04C0C882B4
:102BB000D982EA82FB8211FF2CC0C0902D02D090F6
:102BC0002E02E0902F02F09030022C813D814E8148
:102BD0005F81C701B6010E940294181624F4CC82CA
:102BE000DD82EE82FF82C0903902D0903A02E090FE
:102BF0003B02F0903C022C813D814E815F81C701F8
:102C0000B6010E94538D87FF04C0CC82DD82EE8224
:102C1000FF8212FF2CC0C0903102D0903202E090AF
:102C20003302F0903402288539854A855B85C701D7
:102C3000B6010E940294181624F4C886D986EA8642
:102C4000FB86C0903D02D0903E02E0903F02F090A3
:102C50004002288539854A855B85C701B6010E94F7
:102C6000538D87FF04C0C886D986EA86FB86DF912C
:102C7000CF911F91FF90EF90DF90CF9008958091BA
:102C8000000490910104A0910204B0910304809388
:102C9000490290934A02A0934B02B0934C02809158
:102CA000FE039091FF03909348028093470208959A
:102CB0008091490290914A02A0914B02B0914C023E
:102CC0008093000490930104A0930204B093030442
:102CD00080914702909148029093FF038093FE03F6
:102CE00084E690E0909348028093470208958F9283
:102CF0009F92AF92BF92CF92DF92EF92FF921F937B
:102D0000CF93DF93CDB7DEB760970FB6F894DEBFF1
:102D10000FBECDBF182F81E00E9417156B017C01FB
:102D200080E00E9417154B015C018092F2039092A3
:102D3000F303A092F403B092F503C092F603D0928D
:102D4000F703E092F803F092F90382E00E9417156E
:102D50006093FA037093FB038093FC039093FD034D
:102D600089829A82AB82BC82CD82DE82EF82F88633
:102D700069877A878B879C8783E00E9417156D8708
:102D80007E878F87988B1E3FD9F480E1FE013196B4
:102D9000A3E5B2E001900D928A95E1F760960FB637
:102DA000F894DEBF0FBECDBFDF91CF911F91FF9092
:102DB000EF90DF90CF90BF90AF909F908F9008954D
:102DC00024E0129FC0011124FC01ED5AFD4FA1E047
:102DD000B0E0AC0FBD1F8A0F9B1FDC014D915D91D0
:102DE0006D917C914083518362837383D7CFCF925F
:102DF000DF92EF92FF928091F10365997BC0816031
:102E00008093F103909103018091F10391FD74C0CF
:102E100082608093F1038091F1034B996FC08460CD
:102E20008093F1038091F1039091F003981709F4D6
:102E300067C092E09093EF038093F0038091EA06DD
:102E4000811105C08091DD06882309F466C0C09019
:102E50004604C0FE10C08091C60480FF0CC0809163
:102E6000EE0380FF08C08091DB0681608093DB0663
:102E700080E00E94F714D12CF12CE12CD701C6017F
:102E8000B695A7959795879580FF11C08091C60448
:102E9000869580FF0CC08091EE0381FF08C0809171
:102EA000DB0682608093DB0681E00E94F71482E0FB
:102EB000F694E794D794C7948A95D1F7C0FE2DC0B5
:102EC0008091C6048695869580FF27C08091DD0697
:102ED000882319F18091EE0382FF1FC08091DB06E9
:102EE00084608093DB0682E0FF90EF90DF90CF90CC
:102EF0000C94F7148E7F84CF8D7F8BCF8B7F90CFF8
:102F00008091EF03882309F499CF81508093EF03D8
:102F1000811194CF9093EE0391CFFF90EF90DF90CB
:102F2000CF9008950F931F938091CA06813019F5B1
:102F30000E9468110091DD031091DE032091DF03F0
:102F40003091E003601B710B820B930B28EE33E092
:102F500040E050E00E9446916091D9037091DA03FD
:102F60008091DB039091DC03620F731F841F951F18
:102F70001F910F9108956091C6067091C7068091C8
:102F8000C8069091C906D6CF1092CA061092DD03EA
:102F90001092DE031092DF031092E0031092C60637
:102FA0001092C7061092C8061092C9061092D90353
:102FB0001092DA031092DB031092DC0308958091E3
:102FC000CA068130F1F08230C9F40E9492176093F2
:102FD000D9037093DA038093DB039093DC0381E0E1
:102FE0008093CA060E9468116093DD037093DE032C
:102FF0008093DF039093E00381E008950E94C4175B
:10300000EECF80E008958091CA068150823070F43E
:103010001092CA060E9468116093C6067093C70694
:103020008093C8069093C90681E0089580E00895D2
:103030002091DE0D3091DF0D263531053CF42091D5
:10304000B5063091B6062630310524F0882329F0E4
:103050000C94DF1761110C94031808954F925F923E
:103060006F927F928F929F92AF92BF92CF92DF9298
:10307000EF92FF92CF93DF9300D000D01F921F9268
:10308000CDB7DEB79E838D83DB01CD90DD90ED90D3
:10309000FC908091E2069091E306A091E406B09145
:1030A000E50689839A83AB83BC839C01AD01C7018C
:1030B000B6010E94A1912B013C01AD81BE818D9092
:1030C0009D90AD90BC908091DE069091DF06A0911E
:1030D000E006B091E1068D839E83AF83B88722ED31
:1030E00030E040EA50ECC301B2010E94029487FD37
:1030F000D2C023E030E046E953E4C301B2010E94AC
:10310000538D18160CF4C7C02D813E814F81588510
:10311000C501B4010E94A1912B013C0127E137EBCD
:1031200041ED58EB0E94029487FDB5C023E030E0EA
:1031300046E953E4C301B2010E94538D18160CF402
:10314000AAC020E030E0A9016D817E818F81988541
:103150000E94A2912B013C0120E030E040E251E4CA
:103160000E94538D87FF06C0412C512C30E2632E04
:1031700031E4732E27E137EB41ED58E3C301B2018F
:103180000E94A1919B01AC01C501B4010E9402946F
:1031900087FD81C020E030E046E953E46D817E8107
:1031A0008F8198850E94A2912B013C0120E030E0A4
:1031B00041E953E40E940294181634F4412C512C36
:1031C00021E9622E23E4722E27E137EB41ED58E32B
:1031D000C301B2010E94A2919B01AC01C501B401DF
:1031E0000E94538D18160CF456C020E030E040EADF
:1031F00050E469817A818B819C810E94A1914B016D
:103200005C0120E030E040E251E40E94538D87FFF2
:1032100006C0812C912C90E2A92E91E4B92E27E1D1
:1032200037EB41ED58E3C501B4010E94A1919B0128
:10323000AC01C701B6010E94029487FD2CC020E0BA
:1032400030E046E953E469817A818B819C810E9458
:10325000A2914B015C0120E030E041E953E40E947F
:103260000294181634F4812C912C81E9A82E83E461
:10327000B82E27E137EB41ED58E3C501B4010E94B8
:10328000A2919B01AC0191E09983C701B6010E9414
:10329000538D18160CF41982898128960FB6F8946C
:1032A000DEBF0FBECDBFDF91CF91FF90EF90DF90DB
:1032B000CF90BF90AF909F908F907F906F905F90D6
:1032C0004F900895282F90910407833021F495FDA5
:1032D0000FC094FD0FC0892F90E0B0E0A0E004C0C3
:1032E000B695A795979587952A95D2F781700895F9
:1032F00081E0089580E008952FEB280F2A3108F02F
:1033000042C0E22FF0E08091CB069091CC06A091D4
:10331000CD06B091CE0604C0B695A7959795879532
:103320002A95D2F780FD02C081700895E35CFC4FBE
:10333000E081EE2329F18091800D9091810DE80FBD
:10334000F92FF11D808190ED980F9A3030F08E3278
:1033500051F4818180538A3098F4F093F206E0931F
:10336000F10681E008958D3211F08B3249F48181AC
:1033700090ED980F9A3088F38E3211F48281EACF63
:10338000F0E0E0E0EACF80E008950E947C19882315
:1033900041F081E02091F1063091F206232B09F4EF
:1033A00080E00895CF93DF93EC01688170E085E0C1
:1033B0000E943910698170E084E00E9439106A81AE
:1033C00070E086E00E94391088819981482F490F6A
:1033D0005527551F8A81840F952F911D21E0833039
:1033E00091050CF420E02093720403976CF05EE0EA
:1033F000C632D50749F088819981AA818093260E2B
:103400009093270EA093280EDF91CF9108954F92AD
:103410005F926F927F928F929F92AF92BF92CF9264
:10342000DF92EF92FF92CF93DF9300D000D000D0D5
:103430001F921F92CDB7DEB77C016B01DA018D912F
:103440009D910D90BC91A02D8C839D83AE83BF83F5
:10345000BC01CD010E940E93688779878A879B877C
:10346000F7014080518062807380C301B2010E94E5
:103470000E934B015C01D601CD90DD90ED90FC9058
:10348000A7019601C301B2010E94029418160CF420
:1034900046C0A70196016C817D818E819F810E942B
:1034A000538D87FD3FC0C701B6010E940E939B015B
:1034B000AC01281939094A095B09AFEFB0E00E9455
:1034C0008791288539854A855B85281939094A09F4
:1034D0005B090E9468918091C406821759F020937D
:1034E000C4068FEF89831A8220952B83CE01019623
:1034F0000E94D2192B960FB6F894DEBF0FBECDBF37
:10350000DF91CF91FF90EF90DF90CF90BF90AF9081
:103510009F908F907F906F905F904F900895C5011E
:10352000B401C5CF688579858A859B85C0CF4F92C8
:103530005F926F927F928F929F92AF92BF92CF9243
:10354000DF92EF92FF92CF93DF9300D000D000D0B4
:103550001F921F92CDB7DEB77C016B01DA018D910E
:103560009D910D90BC91A02D8C839D83AE83BF83D4
:10357000BC01CD010E940E93688779878A879B875B
:10358000F7014080518062807380C301B2010E94C4
:103590000E934B015C01D601CD90DD90ED90FC9037
:1035A000A7019601C301B2010E94029418160CF4FF
:1035B00045C0A70196016C817D818E819F810E940B
:1035C000538D87FD3EC0C701B6010E940E939B013B
:1035D000AC01281939094A095B09AFEFB0E00E9434
:1035E0008791288539854A855B85281939094A09D3
:1035F0005B090E9468918091C406821751F0209364
:10360000C40629831A828FEF8B83CE0101960E9414
:10361000D2192B960FB6F894DEBF0FBECDBFDF9147
:10362000CF91FF90EF90DF90CF90BF90AF909F90A1
:103630008F907F906F905F904F900895C501B40177
:10364000C6CF688579858A859B85C1CF129A0895F2
:103650005F9A8091DC068E7F8093DC068A9A809147
:10366000DC068D7F8093DC06809108018095817057
:10367000809306018091DC068B7F8093DC060C949E
:10368000261B9091C00095FFFCCF8093C600089543
:10369000CF93DF93EC01FE0184912196882319F0EA
:1036A0000E94411BF8CFDF91CF910895CF93C82F8F
:1036B000CB010E94481B82EE98E00E94481B83EDDC
:1036C00098E0CC2311F088ED98E00E94481B8AE036
:1036D000CF910C94411BCF9387EF98E00E94481B39
:1036E0008CB1C1E085FB882780F961EF78E08C27F9
:1036F0000E94561B80910301869581706BEE78E0E5
:103700008C270E94561B89B183FB882780F965EEC0
:1037100078E08C27CF910C94561B0F931F93CF9377
:10372000DF938B010E94481BE8018991882319F0DF
:103730000E94411BFACFDF91CF911F910F91089505
:103740008BED93E00C94481BC82F0E94E0110E945F
:10375000A01B8AEB9DE10E94481B89EE93E030E6B6
:10376000019729F0232F2A950000E9F7F9CFF89463
:1037700089EE93E038EE019729F0232F2A95000077
:10378000E9F7F9CF0E94E011CC2321F00E94281B19
:10379000A895FECF0E94261BFBCF85ED93E00C94ED
:1037A000481B0E94CD1B6091800D7091810D87E9AF
:1037B0009DE10E948D1B84E99DE10C94481B0F93B1
:1037C0001F93CF93811113C0C42F8B010E94CD1B77
:1037D0008BEF96E00E94481BC8010E94481BCC2337
:1037E00031F08AE0CF911F910F910C94411BCF9142
:1037F0001F910F91089580915703909158032FEFD7
:103800003FEF981751F0E92FF0E0E95AFC4F228181
:1038100030E09F5F9F7790935803C90108958F927E
:103820009F92AF92BF92CF92DF92EF92FF920F934F
:103830001F93CF93DF93B0E4A0E06A2F70E0AB0159
:103840004B0F511D55954795411119C0EEE1F6E119
:1038500065917491072E000C880B990B0E945A8D6C
:10386000DF91CF911F910F91FF90EF90DF90CF905C
:10387000BF90AF909F908F900895B42FE0CF4A17DC
:1038800011F0B41303C0EAE1F7E1E2CF9A0121504D
:103890003109220F331F220F331FF901E45EF94E65
:1038A000E590F490F901E05EF94EC591D4918E1542
:1038B0009F051CF3A42FC817D9070CF4BECFF9013C
:1038C000E25EF94E05911491F901EE5DF94EC59055
:1038D000D490BC016E197F09072E000C880B990B40
:1038E0000E945A8D4B015C01B601601B710B072EC3
:1038F000000C880B990B0E945A8D9B01AC01C501ED
:10390000B4010E94B98D4B015C01BE016E197F09A3
:10391000072E000C880B990B0E945A8D9B01AC015D
:10392000C501B4010E949C926B017C01B801110F8A
:10393000880B990B0E945A8D9B01AC01C701B601FF
:103940000E94A2918DCFCF93DF93C6EDDDE08A81F7
:103950009B810E940F1C6C837D838E839F83CDEAA5
:10396000D6E08A819B810E9403126C837D838E83C3
:103970009F83A8951092B504DF91CF910895CF92BF
:10398000DF92EF92FF920F931F93CF93DF93CDB708
:10399000DEB7A0970FB6F894DEBF0FBECDBF61159E
:1039A00071058105910579F100E0C42ED12CF12C2F
:1039B000E12CA70196010E94469111E0100FE1E071
:1039C000F0E0EC0FFD1FE00FF11D07FDFA9560839D
:1039D000B901CA01012F611571058105910549F7EA
:1039E000115010F1E1E0F0E0EC0FFD1FE10FF11DCF
:1039F00017FDFA95908187E39A3008F480E3890FE8
:103A00000E94411BEDCF80E3A0960FB6F894DEBF75
:103A10000FBECDBFDF91CF911F910F91FF90EF901F
:103A2000DF90CF900C94411BA0960FB6F894DEBFA8
:103A30000FBECDBFDF91CF911F910F91FF90EF90FF
:103A4000DF90CF900895CF93DF93EB010E94481B46
:103A5000BE0190E080E04AE0DF91CF910C94BF1C62
:103A6000CF92DF92EF92FF926B017C01F7FE0BC0C9
:103A70008DE20E94411BF094E094D094C094C11C4C
:103A8000D11CE11CF11C4AE0C701B601FF90EF9088
:103A9000DF90CF900C94BF1CCF93DF93EB010E947B
:103AA000481BBE01DD0F880B990BDF91CF910C9461
:103AB000301D0F931F93CF93C82F8B018091030765
:103AC0008130A9F40E94A01BC8010E94481B86E512
:103AD00094E10E94481BC7FD19C06C2FCC0F770BD7
:103AE000880B990B0E94301D8AE00E94411B0E94A6
:103AF000E0118091730481110EC081E08093730402
:103B000080E88093030780E00E94A41B82E594E193
:103B10000E94481BE9CFCF911F910F9108953F92CA
:103B20004F925F926F927F928F929F92AF92BF92CD
:103B3000CF92DF92EF92FF920F931F93CF93DF9379
:103B40006C015B01322E4801C1E0D0E0211102C0BE
:103B5000D0E0C0E0FA014080518062807380CC0FD9
:103B6000DD1FCC0FDD1F8E0103551B4FA3019201FA
:103B7000F80160817181828193810E94538D882335
:103B800091F0F801408251826282738211E020E05C
:103B900030E0A901C301B2010E94029418160CF092
:103BA00010E0F6011483F60184818230C9F083307D
:103BB00009F463C0813009F03FC0FE01E355FB4FBB
:103BC0002081318142815381F5016081718182813F
:103BD00093810E94538D87FD2FC082E0F60184837C
:103BE000C355DB4FB70190E080E00E94588D9B01E8
:103BF000AC01688179818A819B810E94A1919B019E
:103C0000AC01F50160817181828193810E940294EF
:103C100087FD24C00E9468112B013C019401A8EE8D
:103C2000B3E00E949291460E571E681E791EF6015F
:103C30004082518262827382DF91CF911F910F91F6
:103C4000FF90EF90DF90CF90BF90AF909F908F90BC
:103C50007F906F905F904F903F9008950E94681101
:103C6000F6010081118122813381601B710B820B6F
:103C7000930B97FDE1CF83E0848342E954E162EA4C
:103C800074E1832DDF91CF911F910F91FF90EF9001
:103C9000DF90CF90BF90AF909F908F907F906F906C
:103CA0005F904F903F900C94591D2F923F924F92EE
:103CB0005F926F927F928F929F92AF92BF92CF92BC
:103CC000DF92EF92FF920F931F93CF93DF93CDB7C5
:103CD000DEB763970FB6F894DEBF0FBECDBF8091FD
:103CE000B504811119C063960FB6F894DEBF0FBEFC
:103CF000CDBFDF91CF911F910F91FF90EF90DF909B
:103D0000CF90BF90AF909F908F907F906F905F907B
:103D10004F903F902F9008950E94A31C0E9468111D
:103D20004B015C016091240270912502072E000C6A
:103D3000880B990B0E945A8D2B013C01AC019B0111
:103D40006091DA0D7091DB0D8091DC0D9091DD0DAD
:103D50000E94029418160CF411C36091DE0D70914C
:103D6000DF0D072E000C880B990B0E945A8D69837A
:103D70007A838B839C8334E0E32EF12C08E210E0FD
:103D800020E0AE014F5F5F4F6AED7DE082EA94E094
:103D90000E948F1DC090DA0DD090DB0DE090DC0DFD
:103DA000F090DD0D6091220270912302072E000C2D
:103DB000880B990B0E945A8D9B01AC01C701B6017B
:103DC0000E94029418160CF014C1A7019601C301B9
:103DD000B2010E94029418160CF00BC16091DE0D26
:103DE0007091DF0D6115710509F42CC3072E000CCD
:103DF000880B990B0E945A8DA70196010E94A191F0
:103E00001B012C0120E030E040E251EC0E94538D78
:103E100087FD18C320E030E040E251E4C201B10167
:103E20000E94029418160CF426C380919C04811100
:103E30002FC32091940430919504409196045091A1
:103E400097042D833E834F835887809198049091E7
:103E50009904A0919A04B0919B0489879A87AB87B3
:103E6000BC87A701960160918804709189048091B4
:103E70008A0490918B040E94A1912091E90D3091C8
:103E8000EA0D4091EB0D5091EC0D0E94B98D2D8102
:103E90003E814F8158850E94A19120ED3CEC4CE47D
:103EA0005DE30E94B98D2D813E814F8158850E942E
:103EB000A2916D837E838F8398876093940470931F
:103EC000950480939604909397042091E50D30918A
:103ED000E60D4091E70D5091E80D2D873E874F8705
:103EE000588B29853A854B855C85C201B1010E94BA
:103EF000A291162F072F782E692E20E030E0A9011D
:103F00000E94538D87FDD4C22D853E854F855889EB
:103F100060E070E08FE793E40E949C926987798B60
:103F20008A8B9B8B212F302F472D562D0E94538D2E
:103F300087FF04C0198509897A886B88812F902FA3
:103F4000A72DB62D8093980490939904A0939A047A
:103F5000B0939B042091E10D3091E20D4091E30D6F
:103F60005091E40DC201B1010E94B98D1B012C01D9
:103F700020928C0430928D0440928E0450928F04D3
:103F8000212F302F472D562D6D857E858F85988961
:103F90000E94B98D9B01AC01209390043093910451
:103FA0004093920450939304C201B1010E94A291E4
:103FB0002D813E814F8158850E94A29120E030E002
:103FC000A9010E94A2912B013C0120E030E0A9014F
:103FD0000E94538D87FD39C220E030E04FE753E463
:103FE000C301B2010E94029418160CF038C26FE7A8
:103FF0002DC260E06093E00D8091D20D9091D30DC1
:10400000A091D40DB091D50D0097A105B10509F18E
:10401000A5019401281B390B4A0B5B0BDA01C9017E
:10402000B7FD17C06091D00D7091D10D90E080E088
:104030000E94588D9B01AC01C701B6010E94538DAF
:1040400087FFD2C144E754E163E874E180E00E9455
:10405000591D20E030E04CED52E46091B1067091C2
:10406000B2068091B3069091B4060E94029418168D
:104070000CF47CC18091A9049091AA04A091AB0496
:10408000B091AC040097A105B10529F1881A990AED
:10409000AA0ABB0AB7FC1FC0C090B106D090B206F6
:1040A000E090B306F090B4066091A7047091A80464
:1040B00090E080E00E94588D9B01AC01C701B601E1
:1040C0000E94538D87FF62C144E754E163E874E1C5
:1040D0008FEF0E94591D0091B5061091B606B801E8
:1040E000110F880B990B0E945A8D69837A838B83F9
:1040F0009C8392E0E92EF12C04E110E02FEFAE0159
:104100004F5F5F4F61EB76E08DE994E00E948F1D79
:104110004090B1065090B2066090B3067090B4061D
:1041200020E030E040EA50E4C301B2010E94029472
:1041300087FD18C120E030E04CED52E4C301B2012C
:104140000E94538D18160CF40DC16091B506709144
:10415000B6066115710509F402C1072E000C880B23
:10416000990B0E945A8DA30192010E94A1914B01CB
:104170005C0120E030E040E251EC0E94538D87FD6D
:10418000EEC020E030E040E251E4C501B4010E94FD
:10419000029418160CF46AC18091BC069091BD0679
:1041A000A091BE06B091BF068D839E83AF83B88772
:1041B00080911802811164C120918404309185049A
:1041C0004091860450918704C0908004D09081046F
:1041D000E0908204F0908304C501B4010E94A29192
:1041E000162F072F382E292E20E030E0A9010E943B
:1041F000538D87FD58C12D813E814F81588560E0E8
:1042000070E08FE793E40E949C926D877987898B99
:104210009A8B212F302F432D522D0E94538D87FFD3
:1042200004C01D85098539882A88812F902FA32DE8
:10423000B22D8093840490938504A0938604B09358
:1042400087042091B8063091B9064091BA06509182
:10425000BB06C501B4010E94B98D4B015C0180927F
:10426000780490927904A0927A04B0927B04212F72
:10427000302F432D522D6D817E818F8198850E9434
:10428000B98D6D837E838F83988760937C04709350
:104290007D0480937E0490937F04A301920160913A
:1042A00074047091750480917604909177040E9453
:1042B000A1912091C0063091C1064091C206509153
:1042C000C3060E94B98DA70196010E94A19120ED1D
:1042D0003CEC4CE45DE30E94B98DA70196010E947D
:1042E000A2916B017C01C0928004D0928104E09283
:1042F0008204F09283044092740450927504609298
:104300007604709277042D813E814F815885C501D6
:10431000B4010E94A291A70196010E94A29120E0FF
:1043200030E0A9010E94A2916B017C0120E030E005
:10433000A9010E94538D87FD15C020E030E04FE7B2
:1043400053E4C701B6010E94029418160CF491C000
:10435000C701B6010E940E937595679504C081E070
:104360008093180260E06093B706BDCC42E954E147
:1043700062EA74E18FEF0E94591D7CCE42E954E15C
:1043800062EA74E180E00E94591DE7CC0091B50615
:104390001091B60601151105F1F0C701B6010E9492
:1043A0000E936E5F7F4FC8010497681779079CF4DE
:1043B0007093A8046093A7040E946811605A754125
:1043C0008F4F9F4F6093A9047093AA048093AB040E
:1043D0009093AC0480CE1092A9041092AA0410927B
:1043E000AB041092AC047BCE0091DE0D1091DF0D7A
:1043F00001151105F1F0C701B6010E940E936E5F21
:104400007F4F04501109601771079CF47093D10D10
:104410006093D00D0E946811605E714B8F4F9F4F6B
:104420006093D20D7093D30D8093D40D9093D50DDE
:1044300010CE1092D20D1092D30D1092D40D109276
:10444000D50D07CE81E080939C0460E0C092880483
:10445000D0928904E0928A04F0928B04CBCDC30100
:10446000B2010E940E9375956795F0CF81E080931D
:1044700018026FE778CF81E080939C046FE7E6CF66
:1044800010921802C12CD12C7601A7019601A4CE5E
:1044900010929C0419861A861B861C861D821E8219
:1044A0001F821886DECC10E000E0312C212CBDCE1E
:1044B00010E000E0712C612C41CDCF92DF92EF92A1
:1044C000FF926B017C0183E3C816D104E104F1047F
:1044D00070F082E3C81AD108E108F10862E370E0E5
:1044E00080E090E00E9435110E94551EECCFC7017C
:1044F000B6010E943511FF90EF90DF90CF900C94A1
:10450000551E8091EA06811104C08091DD06882342
:1045100031F062E070E080E090E00C945D2208955C
:10452000CF92DF92EF92FF92CF93DF93EC01C8809E
:10453000D980EA80FB8088E494E10E94481BC7018F
:10454000B6010E94301DCC80DD80EE80FF8082EEBF
:104550009DE10E94481BC701B6010E94301DC8841E
:10456000D984EA84FB848EED9DE10E94481BC7013B
:10457000B6010E94301D8AE0DF91CF91FF90EF904D
:10458000DF90CF900C94411B8F929F92AF92BF927D
:10459000CF92DF92EF92FF92CF936B017C01B42E0A
:1045A00020E030E0A9010E94538D87FF07C08DE213
:1045B0000E94411BF7FAF094F7F8F094C0E060E035
:1045C00070E080E09FE3CB1541F02DEC3CEC4CEC2F
:1045D0005DE30E94B98DCF5FF6CF9B01AC01C701AF
:1045E000B6010E94A2916B017C010E9415934B01C0
:1045F0005C014AE00E94BF1CCC2391F1C501B401CB
:104600000E94588D9B01AC01C701B6010E94A19187
:104610006B017C018EE20E94411BC15008F120E039
:1046200030E040E251E4C701B6010E94B98D4B0170
:104630005C010E940E936B01770FEE08FF08C70123
:10464000B6010E94301DC701B6010E945A8D9B0120
:10465000AC01C501B4010E94A1916B017C01DDCFC9
:10466000CF91FF90EF90DF90CF90BF90AF909F9051
:104670008F900895CF92DF92EF92FF926A017B01B3
:104680000E94481B42E0C701B601FF90EF90DF9007
:10469000CF900C94C4224F925F926F927F928F9230
:1046A0009F92AF92BF92CF92DF92EF92FF920F93C1
:1046B0001F93CF93DF93C3E5D2E04C845D846E8477
:1046C0007F840DEE1DE0F8012481358146815781FC
:1046D0006C817D818E819F810E94A2914B015C0142
:1046E000F8012085318542855385688579858A85DD
:1046F0009B850E94A2916B017C01F8012081318190
:1047000042815381688179818A819B810E94A29133
:10471000AB01BC0186EE9DE10E943A23B501A401E4
:1047200082EE9DE10E943A23B701A6018EED9DE144
:104730000E943A23B301A2018AED9DE1DF91CF915E
:104740001F910F91FF90EF90DF90CF90BF90AF90AF
:104750009F908F907F906F905F904F900C943A2332
:10476000CF93DF93CDB7DEB72C970FB6F894DEBFAB
:104770000FBECDBF0E944B230E94E4149CE0E2E6F2
:10478000F4E0DE01119601900D929A95E1F7811106
:104790000E94F114CE0101960E9490222C960FB631
:1047A000F894DEBF0FBECDBFDF91CF91089588236F
:1047B000A9F10E94CD1B4091960D5091970D6091EB
:1047C000980D7091990D83EB9DE10E943A234091E1
:1047D0009A0D50919B0D60919C0D70919D0D80EBF9
:1047E0009DE10E943A2340919E0D50919F0D609152
:1047F000A00D7091A10D8DEA9DE10E943A23409198
:10480000A20D5091A30D6091A40D7091A50D8AEA9F
:104810009DE10E943A238AE00C94411B80E20E94B1
:10482000411BC9CFEF92FF920F931F93CF937C014F
:104830008B01C2E44F3F09F0C4E580E20E94411BB6
:104840008C2F0E94411B8AE30E94411BF70160816B
:1048500071818281938142E00E94C422F8014081EB
:1048600051816281738180EF94E10E943A2362E07A
:1048700070E080E090E0CF911F910F91FF90EF905A
:104880000C9435111F93CF93DF9300D000D01F926B
:104890001F92CDB7DEB7182F6091DE0D7091DF0D3E
:1048A000072E000C880B990B0E945A8D6D837E8316
:1048B0008F8398878091DA0D9091DB0DA091DC0DAC
:1048C000B091DD0D89839A83AB83BC834BEFBE012E
:1048D0006B5F7F4FCE0101960E9412246091B50656
:1048E0007091B606072E000C880B990B0E945A8D0A
:1048F0006D837E838F8398878091B1069091B206F5
:10490000A091B306B091B40689839A83AB83BC832C
:104910004FEFBE016B5F7F4FCE0101960E941224C4
:104920006091B7061F3F39F087E11802F0011124AA
:10493000EA52F24F628570E088EF94E10E944C1DCC
:104940006091B70670E083EF94E10E944C1D2896B9
:104950000FB6F894DEBF0FBECDBFDF91CF911F9190
:104960000895CF93DF93C82FD1E0D827811102C0DB
:104970000E94CD1B8CEB98E00E94481B86EB98E0D0
:104980000E94481B8AE00E94411B8AE00E94411B52
:10499000C11114C00E94CD1B8BEF96E00E94481BF2
:1049A00083EA98E00E94481B8091A106882309F4BD
:1049B00021C28AE00E94411B0E94CD1B6091A1068A
:1049C00070E08FE898E00E944C1D40919D06509148
:1049D0009E0660919F067091A0068CE898E00E9468
:1049E0003A238AE00E94411B41E06CE778E08C2F7B
:1049F0000E94DF1B8D2F0E94D72341E06FE578E0F6
:104A00008C2F0E94DF1BC11102C00E94CD1B409160
:104A1000A60D5091A70D6091A80D7091A90D86E586
:104A200098E00E943A234091AA0D5091AB0D6091FD
:104A3000AC0D7091AD0D80EB9DE10E943A23409149
:104A4000AE0D5091AF0D6091B00D7091B10D8DEA2A
:104A50009DE10E943A234091B20D5091B30D6091B7
:104A6000B40D7091B50D8AEA9DE10E943A238AE067
:104A70000E94411B41E065E378E08C2F0E94DF1B20
:104A8000C11102C00E94CD1B6091820D7091830DF7
:104A90008091840D9091850D0E94588DAB01BC01D1
:104AA0008CE298E00E943A236091860D7091870D08
:104AB0008091880D9091890D0E94588DAB01BC01A9
:104AC00080EB9DE10E943A2360918A0D70918B0DDD
:104AD00080918C0D90918D0D0E94588DAB01BC0181
:104AE0008DEA9DE10E943A2360918E0D70918F0DA9
:104AF0008091900D9091910D0E94588DAB01BC0159
:104B00008AEA9DE10E943A238AE00E94411B41E02B
:104B100063EE77E08C2F0E94DF1BC11102C00E9460
:104B2000CD1B4091B60D5091B70D6091B80D7091AD
:104B3000B90D8AED97E00E943A234091BA0D509149
:104B4000BB0D6091BC0D7091BD0D87ED97E00E948B
:104B50003A234091BE0D5091BF0D6091C00D7091F0
:104B6000C10D88E999E10E943A238AE00E94411B25
:104B700041E063E877E08C2F0E94DF1BC11102C087
:104B80000E94CD1B6091920D7091930D8091940DB8
:104B90009091950D0E94588DAB01BC018AE797E07A
:104BA0000E943A234091C20D5091C30D6091C40DF3
:104BB0007091C50D87E797E00E943A234091C60D9A
:104BC0005091C70D6091C80D7091C90D88E999E1A8
:104BD0000E943A234091090750910A0760910B0700
:104BE00070910C0784E797E00E943A238AE00E94C4
:104BF000411B41E067E677E08C2F0E94DF1BC1116B
:104C000002C00E94CD1B4091910650919206609186
:104C10009306709194068EE597E00E943A234091A6
:104C2000950650919606609197067091980680EBD4
:104C30009DE10E943A234091990650919A06609115
:104C40009B0670919C068DEA9DE10E943A238AE0C2
:104C50000E94411B41E060E577E08C2F0E94DF1B42
:104C6000C11102C00E94CD1B4091E10D5091E20D97
:104C70006091E30D7091E40D87E497E00E943A2380
:104C80002CEA35EC47E25EE36091E50D7091E60DAC
:104C90008091E70D9091E80D0E949C92AB01BC01C0
:104CA00084E497E00E943A232CEA35EC47E25EE385
:104CB0006091E90D7091EA0D8091EB0D9091EC0DF2
:104CC0000E94B98DAB01BC0181E497E00E943A23B8
:104CD0008AE00E94411BC11102C00E94CD1B40917D
:104CE000B8065091B9066091BA067091BB0688E388
:104CF00097E00E943A232CEA35EC47E25EE36091AC
:104D0000BC067091BD068091BE069091BF060E94C0
:104D10009C92AB01BC0185E397E00E943A232CEA08
:104D200035EC47E25EE36091C0067091C106809168
:104D3000C2069091C3060E94B98DAB01BC0182E30B
:104D400097E00E943A238AE00E94411B40E063E220
:104D500077E08C2F0E94DF1BC1110AC086EB98E020
:104D60000E94481B8EEF96E00E94481B0E94CD1BBC
:104D70004091DE065091DF066091E0067091E106F9
:104D80008AE197E00E943A234091E2065091E306BF
:104D90006091E4067091E50680EB9DE10E943A2364
:104DA0004091E6065091E7066091E8067091E906A9
:104DB0008DEA9DE10E943A238AE00E94411B41E076
:104DC0006AE077E08C2F0E94DF1BC11102C00E94B5
:104DD000CD1B4091490750914A0760914B07709154
:104DE0004C0781E097E00E943A238AE0DF91CF915F
:104DF0000C94411B88E998E00E94481BDDCD8DE0B2
:104E00000E94411B8AE00C94411B809157038093C0
:104E1000580380E194E00E94481B6091CC0D709192
:104E2000CD0D8091CE0D9091CF0D6F5F7F4F8F4F45
:104E30009F4F0E94301D0E94FF26E0918B06F0E0FC
:104E4000EE5DF14F8081882339F082E198E10E9484
:104E5000481B8AE00C94411B0895CF93DF93EC012B
:104E60000E94A01BCE010E94481B6091CC0D709146
:104E7000CD0D8091CE0D9091CF0D0E94301D0E94DE
:104E8000FF260E94FB1B0196E1F70E940527109266
:104E9000CB0D1092CA0DDF91CF9108950F931F9300
:104EA000CF938C01C62F85EF93E00E94481BC80169
:104EB0000E94481B8AE30E94411B6C2F70E090E027
:104EC00080E00E94301DCF911F910F910C94FF261E
:104ED000CF93DF93EC018991882319F00E94411B45
:104EE000FACFDF91CF910C94FF26CF92DF92EF9211
:104EF000FF920F931F93CF93DF93C2E8DDE00DE1A4
:104F000017E0C12CD12C7601C394699179918991D4
:104F100099910E94588D288939894A895B890E9414
:104F2000B98D0E941593F8016193719381939193C8
:104F30008F01C616D706E806F90610F46B017C014E
:104F4000FDE0C239DF0709F76FEF7FEFCB01A70163
:104F500096010E94469120932D0730932E0740938F
:104F60002F075093300723EF34E045E35FE3609170
:104F7000090770910A0780910B0790910C070E9416
:104F8000B98D2AE136EF45E95EE30E949C926B0100
:104F90007C016091820D7091830D8091840D9091C0
:104FA000850D0E94588D9B01AC01C701B6010E947E
:104FB000B98D0E94509460933107709332078093AB
:104FC000330790933407DF91CF911F910F91FF909A
:104FD000EF90DF90CF900895FF920F931F93CF93A0
:104FE000DF931F92CDB7DEB7F82E07E312E041E062
:104FF00050E0B801CE0101960E94DF8C89818F11AB
:1050000008C081E00F90DF91CF911F910F91FF9029
:1050100008950F5F1F4F82E00035180741F780E0C9
:10502000F1CFEF92FF920F931F93CF93DF93CDB702
:10503000DEB762970FB6F894DEBF0FBECDBF0E94F9
:105040008B158823E1F145EB52E082FF02C04CEA68
:1050500052E025EB32E081FF02C02EEA32E080FD13
:105060002BC085EB92E05F934F933F932F939F93D9
:105070008F9381E199E09F938F93CE0101967C01FC
:105080009F938F930E94238D0E94CD1BC7010E9486
:1050900068270FB6F894DEBF0FBECDBF81E06296E1
:1050A0000FB6F894DEBF0FBECDBFDF91CF911F9139
:1050B0000F91FF90EF90089580EB92E0D4CF80E0C5
:1050C000EECF2F923F924F925F926F927F928F928C
:1050D0009F92AF92BF92CF92DF92EF92FF920F9387
:1050E0001F93CF93DF93CDB7DEB76C970FB6F894CD
:1050F000DEBF0FBECDBF8C015B015A834983FC012B
:10510000EF5AFF4F208131814281538129873A87AD
:105110004B875C87CA01B9010E94588D6B017C01E5
:10512000D5012D913D914D915C910E94B98D0E94C8
:1051300080922B013C01E981FA81208131814281F9
:105140005381C701B6010E94B98D0E9480924B0124
:105150005C01C301B2010E941593698B7A8B8B8B22
:105160009C8B683771058105910540F428E730E094
:1051700040E050E0298B3A8B4B8B5C8BC501B4012E
:105180000E9415936D877E878F87988B683771058E
:105190008105910540F448E750E060E070E04D87FC
:1051A0005E876F87788BF801E35AFF4F408051800C
:1051B00062807380C301B2010E945A8D69837A8331
:1051C0008B839C8369897A898B899C890E94588DFD
:1051D0006D8B7E8B8F8B988F20E030E0A9016981E9
:1051E0007A818B819C810E94538D882309F4E1C1CF
:1051F000A7019601C701B6010E94B98D4B015C0160
:105200002D893E894F89588DCA01B9010E94B98DF7
:105210009B01AC01C501B4010E94A1914B015C014D
:1052200029813A814B815C81CA01B9010E94A29116
:105230009B01AC01C501B4010E949C920E94809226
:105240000E9415936D837E838F83988766277727C7
:10525000CB0164197509860997090E945A8D4B0183
:105260005C016D857E858F8598890E94588D2B0104
:105270003C0120E030E0A901C501B4010E94538D3A
:10528000882309F49AC1A3019201C301B2010E94CB
:10529000B98D698F7A8F8B8F9C8FA7019601C7017B
:1052A000B6010E94B98D9B01AC01698D7A8D8B8D01
:1052B0009C8D0E94A1916B017C01A5019401C50107
:1052C000B4010E94A2919B01AC01C701B6010E94EA
:1052D0009C920E944493D80195968D909D90AD909C
:1052E000BC909897750164012D813E814F8158854E
:1052F000C21AD30AE40AF50A0E941593C61AD70AFD
:10530000E80AF90AF7FE8EC02D893E894F89588D2B
:10531000CA01B9010E94B98D6B017C0129813A81D2
:105320004B815C81CA01B9010E94A29169877A8789
:105330008B879C8720E030E0A90169817A818B818D
:105340009C810E94538D882309F43BC1C501B4019F
:105350000E94588D29853A854B855C850E94B98DC0
:10536000A70196010E94A1916D837E838F83988708
:10537000A3019201C301B2010E94B98D9B01AC014E
:105380006D817E818F8198850E94A2912B013C01C5
:1053900020E030E040E850E469817A818B819C8193
:1053A0000E94B98D9B01AC01C301B2010E949C9285
:1053B0000E9480922B013C0120E030E0A9010E9474
:1053C000029418161CF0412C512C3201C301B20179
:1053D0000E9415936D837E838F8398878616970628
:1053E000A806B90620F48D829E82AF82B8866D81B0
:1053F0007E818F8198850E94588D29853A854B85BD
:105400005C850E94B98DA70196010E94A2910E941D
:1054100050940E94159369877A878B879C87C12C4B
:10542000D12C760169857A858B859C8529893A8975
:105430004B895C89621B730B840B950B0E94588D02
:1054400029813A814B815C810E949C9220E034E268
:1054500044EF59E40E94B98D0E9415934B015C0101
:1054600069857A858B859C852D853E854F855889F4
:10547000621B730B840B950B0E94588D29813A8116
:105480004B815C810E949C9220E034E244EF59E41D
:105490000E94B98D0E9415932B013C013FE68316B3
:1054A0009104A104B10408F090C0F401EE0FFF1FB5
:1054B000EE0FFF1FE459F64F85919591A591B49198
:1054C0008983292E3A2EBD8B4FE644165104610480
:1054D000710408F083C0F201EE0FFF1FEE0FFF1FF3
:1054E000E459F64F45915591659174919A01CB011C
:1054F0004D815E816F817885D80199964D935D933A
:105500006D937C939C974C0D5D1D6E1D7F1DF80166
:1055100045A756A767A770ABEB5AFF4F49895A8931
:105520006B897C894083518362837383D5968D9286
:105530009D92AD92BC92D897F80141AE52AE63AE47
:1055400074AEFD9649814083218232825D89538306
:105550003496208331838283938369857A858B8512
:105560009C85D1966D937D938D939C93D4977896DB
:105570002D853E854F85588920833183428353830F
:105580006C960FB6F894DEBF0FBECDBFDF91CF9102
:105590001F910F91FF90EF90DF90CF90BF90AF9051
:1055A0009F908F907F906F905F904F903F902F9043
:1055B000089560E070E0CB0141CE60E070E0CB0187
:1055C00088CE60E070E0CB01F3CEC501B4010E944B
:1055D0004A136983272E382E9D8B76CFC301B201E3
:1055E0000E944A139B0184CF4F925F926F927F92E9
:1055F000AF92BF92CF92DF92EF92FF920F931F93E1
:10560000CF93DF931092A3061092A2062FE320936C
:10561000070710920607109205071092CB0610920A
:10562000CC061092CD061092CE069C01E90198811D
:105630002F5F3F4F9032D1F39E34C9F4898190EDB2
:10564000980F9A3020F08D3211F08B3281F422962F
:105650009E012F5F3F4F888180538A3008F470C0CD
:105660009E012F5F3F4F8881803209F46BC0D09339
:10567000810DC093800D7E012FEFE21AF20A18818E
:105680006AE270E0C7010E94E294009731F0FC01E9
:10569000319780818032E1F311821D3421F014357D
:1056A00011F01734F1F5F70180819FEFE91AF90A3B
:1056B0008032C9F380538A30A0F51093070790E039
:1056C00080E0AAE0AF014F5F5F4F2081022E000C07
:1056D000330B20533109A89FB001A99F700D1124ED
:1056E000C901860F971FFA01208120532A3050F3F9
:1056F0009093060780930507DF0131962C912032A5
:10570000D9F31D3459F58E31910539F0ECF4873118
:10571000910519F08C31910509F5B093A306A0937A
:10572000A206DF91CF911F910F91FF90EF90DF9034
:10573000CF90BF90AF907F906F905F904F90089503
:10574000E90186CFE9018CCF853791053CF0873799
:1057500091051CF3803AE3E09E07F9F240E050E047
:10576000BA0130E020E0C12CD12C7601C394FD01B8
:1057700031960C91002309F48CC00132F1F41D34F0
:10578000E1F480329105C9F44093CB065093CC06E6
:105790006093CD067093CE06F093A306E093A20625
:1057A00063E270E0CF010E94E294009709F4B9CF60
:1057B000FC011082B6CFDF01DACF01540A3108F0C4
:1057C00063C0DF01BD90D0E2AD2EBA1499F0A0ED18
:1057D000AB0DAA3008F1AEE2BA120EC0A181A053FF
:1057E000AA30D0F02115310519F49F01215031095B
:1057F000B12C16C0FD01E5CFADE2AA2EBA1419F006
:10580000ABE2BA12EFCFA181B0EDBA0FBA3020F0FF
:10581000AE3241F7A281E3CFBE2EBC1A309741F3DE
:10582000A02FB0E02601370104C0440C551C661CB3
:10583000771C0A95D2F74429552966297729A35C54
:10584000BC4FBC92A081A154AA3108F4B4CFDF01AF
:105850000191002309F48BCFD0EDBD2EB00ED9E01D
:10586000AD2EAB14A0F7D3EDBD2EB00EAA24A39499
:10587000AB1468F70B3259F3FD0131960C910032ED
:1058800009F075CFDF01F8CF21153105D9F69D015B
:10589000D9CF3093A3062093A2064093CB06509312
:1058A000CC066093CD067093CE063BCF8091F10677
:1058B0009091F206009731F04AE050E070E060E02D
:1058C0000C94A58A60E070E0CB010895CF93DF933C
:1058D000EB010E94C519882319F00E94562CEB0198
:1058E000CE01DF91CF9108950E94562C97FD0CC0F8
:1058F0000E94562C6F3F71058105910509F034F423
:105900000E94562C862F089580E008958FEF089509
:105910000E94C51981110C94742C80E00895CF93D6
:1059200084E50E94C519C0E08823F9F00E94742C18
:10593000C82F1816D4F40E94CD1B8DE40E94411B81
:105940006091050770910607072E000C880B990BD4
:105950000E94301D6C2FCC0F770B82EE93E00E94DB
:105960004C1D8AE00E94411BCFEF8C2FCF910895F0
:105970008091F1069091F206892B41F00E94742CDF
:1059800091E0811101C090E0892F089591E0FCCF52
:10599000CF93DF93C82FD62F0E94C519882321F0FB
:1059A000DF91CF910C94B82C8C2F0E947C1981111F
:1059B00001C08D2FDF91CF9108950F931F93CF9347
:1059C0008091F1069091F2060097E9F0FC018F01B9
:1059D000C1912C2F2F7D81F0C53411F0C536B9F758
:1059E000F801108270E060E00E944789F801C083EE
:1059F000CF911F910F91089570E060E0CF911F91BA
:105A00000F910C94478960E070E0CB01F1CF2F92A9
:105A10003F924F925F926F927F928F929F92AF923E
:105A2000BF92CF92DF92EF92FF920F931F93CF938B
:105A3000DF93CDB7DEB7CF55D1090FB6F894DEBFEF
:105A40000FBECDBF70E060E085E40E94662C8B8BBA
:105A50008F5F8230F0F08BE895E00E94481BC15ABE
:105A6000DF4F0FB6F894DEBF0FBECDBFDF91CF91F1
:105A70001F910F91FF90EF90DF90CF90BF90AF906C
:105A80009F908F907F906F905F904F903F902F905E
:105A9000089565E070E083E40E94662C182F60E0B2
:105AA00085E50E94C82C6E968FAF6E974B88C12CEF
:105AB000D12CF0E7EF2EF2E4FF2E47FC06C0C12CFC
:105AC000D12CE8E4EE2EE3E4FE2E83E50E94C51916
:105AD000882321F00E94DD2C6B017C01C701B601F7
